{
  "_format": "hh-sol-artifact-1",
  "contractName": "Oracle",
  "sourceName": "contracts/Oracle.sol",
  "abi": [
    {
      "inputs": [],
      "stateMutability": "nonpayable",
      "type": "constructor"
    },
    {
      "anonymous": false,
      "inputs": [],
      "name": "NewPrice",
      "type": "event"
    },
    {
      "inputs": [],
      "name": "btcPrice",
      "outputs": [
        {
          "internalType": "uint256",
          "name": "",
          "type": "uint256"
        }
      ],
      "stateMutability": "view",
      "type": "function"
    },
    {
      "inputs": [],
      "name": "getBTCPrice",
      "outputs": [],
      "stateMutability": "nonpayable",
      "type": "function"
    },
    {
      "inputs": [],
      "name": "owner",
      "outputs": [
        {
          "internalType": "address",
          "name": "",
          "type": "address"
        }
      ],
      "stateMutability": "view",
      "type": "function"
    },
    {
      "inputs": [
        {
          "internalType": "uint256",
          "name": "price",
          "type": "uint256"
        }
      ],
      "name": "updateBTCPrice",
      "outputs": [],
      "stateMutability": "nonpayable",
      "type": "function"
    }
  ],
  "bytecode": "0x608060405234801561001057600080fd5b50336000806101000a81548173ffffffffffffffffffffffffffffffffffffffff021916908373ffffffffffffffffffffffffffffffffffffffff160217905550610291806100606000396000f3fe608060405234801561001057600080fd5b506004361061004c5760003560e01c80633dd8a3af146100515780638da5cb5b1461006d578063a8ad52d11461008b578063dd22db80146100a9575b600080fd5b61006b600480360381019061006691906101a8565b6100b3565b005b610075610115565b6040516100829190610216565b60405180910390f35b610093610139565b6040516100a09190610240565b60405180910390f35b6100b161013f565b005b60008054906101000a900473ffffffffffffffffffffffffffffffffffffffff1673ffffffffffffffffffffffffffffffffffffffff163373ffffffffffffffffffffffffffffffffffffffff161461010b57600080fd5b8060018190555050565b60008054906101000a900473ffffffffffffffffffffffffffffffffffffffff1681565b60015481565b7fe1eb5f87a71aa56b578e948fddfe17f31f55ee2d5e9f9a277857e7562500347c60405160405180910390a1565b600080fd5b6000819050919050565b61018581610172565b811461019057600080fd5b50565b6000813590506101a28161017c565b92915050565b6000602082840312156101be576101bd61016d565b5b60006101cc84828501610193565b91505092915050565b600073ffffffffffffffffffffffffffffffffffffffff82169050919050565b6000610200826101d5565b9050919050565b610210816101f5565b82525050565b600060208201905061022b6000830184610207565b92915050565b61023a81610172565b82525050565b60006020820190506102556000830184610231565b9291505056fea2646970667358221220a00eada4fde457e6b69604e2cbb0697ae6a80c490f572f1c246da71645a1145764736f6c63430008110033",
  "linkReferences": {},
  "deployedLinkReferences": {}
}